{
  "contractName": "AIContract",
  "abi": [
    {
      "inputs": [
        {
          "internalType": "string",
          "name": "_modelName",
          "type": "string"
        },
        {
          "internalType": "address",
          "name": "_oracleAddress",
          "type": "address"
        }
      ],
      "stateMutability": "nonpayable",
      "type": "constructor"
    },
    {
      "anonymous": false,
      "inputs": [
        {
          "indexed": false,
          "internalType": "string",
          "name": "modelName",
          "type": "string"
        },
        {
          "indexed": false,
          "internalType": "uint256",
          "name": "timestamp",
          "type": "uint256"
        }
      ],
      "name": "ModelTrained",
      "type": "event"
    },
    {
      "anonymous": false,
      "inputs": [
        {
          "indexed": true,
          "internalType": "address",
          "name": "oracle",
          "type": "address"
        }
      ],
      "name": "OracleAuthorized",
      "type": "event"
    },
    {
      "anonymous": false,
      "inputs": [
        {
          "indexed": true,
          "internalType": "address",
          "name": "oracle",
          "type": "address"
        }
      ],
      "name": "OracleRevoked",
      "type": "event"
    },
    {
      "anonymous": false,
      "inputs": [
        {
          "indexed": true,
          "internalType": "bytes32",
          "name": "requestId",
          "type": "bytes32"
        },
        {
          "indexed": false,
          "internalType": "int256",
          "name": "result",
          "type": "int256"
        }
      ],
      "name": "PredictionFulfilled",
      "type": "event"
    },
    {
      "anonymous": false,
      "inputs": [
        {
          "indexed": true,
          "internalType": "bytes32",
          "name": "requestId",
          "type": "bytes32"
        },
        {
          "indexed": true,
          "internalType": "address",
          "name": "requester",
          "type": "address"
        },
        {
          "indexed": false,
          "internalType": "bytes",
          "name": "inputData",
          "type": "bytes"
        }
      ],
      "name": "PredictionRequested",
      "type": "event"
    },
    {
      "inputs": [
        {
          "internalType": "address",
          "name": "",
          "type": "address"
        }
      ],
      "name": "authorizedOracles",
      "outputs": [
        {
          "internalType": "bool",
          "name": "",
          "type": "bool"
        }
      ],
      "stateMutability": "view",
      "type": "function",
      "constant": true
    },
    {
      "inputs": [],
      "name": "modelName",
      "outputs": [
        {
          "internalType": "string",
          "name": "",
          "type": "string"
        }
      ],
      "stateMutability": "view",
      "type": "function",
      "constant": true
    },
    {
      "inputs": [],
      "name": "oracleAddress",
      "outputs": [
        {
          "internalType": "address",
          "name": "",
          "type": "address"
        }
      ],
      "stateMutability": "view",
      "type": "function",
      "constant": true
    },
    {
      "inputs": [],
      "name": "owner",
      "outputs": [
        {
          "internalType": "address",
          "name": "",
          "type": "address"
        }
      ],
      "stateMutability": "view",
      "type": "function",
      "constant": true
    },
    {
      "inputs": [],
      "name": "predictionFee",
      "outputs": [
        {
          "internalType": "uint256",
          "name": "",
          "type": "uint256"
        }
      ],
      "stateMutability": "view",
      "type": "function",
      "constant": true
    },
    {
      "inputs": [
        {
          "internalType": "bytes32",
          "name": "",
          "type": "bytes32"
        }
      ],
      "name": "predictions",
      "outputs": [
        {
          "internalType": "bytes32",
          "name": "requestId",
          "type": "bytes32"
        },
        {
          "internalType": "address",
          "name": "requester",
          "type": "address"
        },
        {
          "internalType": "bytes",
          "name": "inputData",
          "type": "bytes"
        },
        {
          "internalType": "bool",
          "name": "fulfilled",
          "type": "bool"
        },
        {
          "internalType": "int256",
          "name": "result",
          "type": "int256"
        },
        {
          "internalType": "uint256",
          "name": "timestamp",
          "type": "uint256"
        }
      ],
      "stateMutability": "view",
      "type": "function",
      "constant": true
    },
    {
      "inputs": [],
      "name": "requestCounter",
      "outputs": [
        {
          "internalType": "uint256",
          "name": "",
          "type": "uint256"
        }
      ],
      "stateMutability": "view",
      "type": "function",
      "constant": true
    },
    {
      "inputs": [],
      "name": "trainModel",
      "outputs": [],
      "stateMutability": "nonpayable",
      "type": "function"
    },
    {
      "inputs": [
        {
          "internalType": "bytes",
          "name": "inputData",
          "type": "bytes"
        }
      ],
      "name": "requestPrediction",
      "outputs": [
        {
          "internalType": "bytes32",
          "name": "",
          "type": "bytes32"
        }
      ],
      "stateMutability": "payable",
      "type": "function",
      "payable": true
    },
    {
      "inputs": [
        {
          "internalType": "bytes32",
          "name": "requestId",
          "type": "bytes32"
        },
        {
          "internalType": "int256",
          "name": "result",
          "type": "int256"
        }
      ],
      "name": "fulfillPrediction",
      "outputs": [],
      "stateMutability": "nonpayable",
      "type": "function"
    },
    {
      "inputs": [
        {
          "internalType": "bytes32",
          "name": "requestId",
          "type": "bytes32"
        }
      ],
      "name": "getPrediction",
      "outputs": [
        {
          "components": [
            {
              "internalType": "bytes32",
              "name": "requestId",
              "type": "bytes32"
            },
            {
              "internalType": "address",
              "name": "requester",
              "type": "address"
            },
            {
              "internalType": "bytes",
              "name": "inputData",
              "type": "bytes"
            },
            {
              "internalType": "bool",
              "name": "fulfilled",
              "type": "bool"
            },
            {
              "internalType": "int256",
              "name": "result",
              "type": "int256"
            },
            {
              "internalType": "uint256",
              "name": "timestamp",
              "type": "uint256"
            }
          ],
          "internalType": "struct AIContract.PredictionRequest",
          "name": "",
          "type": "tuple"
        }
      ],
      "stateMutability": "view",
      "type": "function",
      "constant": true
    },
    {
      "inputs": [
        {
          "internalType": "address",
          "name": "_oracle",
          "type": "address"
        }
      ],
      "name": "authorizeOracle",
      "outputs": [],
      "stateMutability": "nonpayable",
      "type": "function"
    },
    {
      "inputs": [
        {
          "internalType": "address",
          "name": "_oracle",
          "type": "address"
        }
      ],
      "name": "revokeOracle",
      "outputs": [],
      "stateMutability": "nonpayable",
      "type": "function"
    },
    {
      "inputs": [
        {
          "internalType": "address",
          "name": "_oracleAddress",
          "type": "address"
        }
      ],
      "name": "setOracleAddress",
      "outputs": [],
      "stateMutability": "nonpayable",
      "type": "function"
    },
    {
      "inputs": [
        {
          "internalType": "uint256",
          "name": "_fee",
          "type": "uint256"
        }
      ],
      "name": "setPredictionFee",
      "outputs": [],
      "stateMutability": "nonpayable",
      "type": "function"
    },
    {
      "inputs": [],
      "name": "getOracleAddress",
      "outputs": [
        {
          "internalType": "address",
          "name": "",
          "type": "address"
        }
      ],
      "stateMutability": "view",
      "type": "function",
      "constant": true
    },
    {
      "inputs": [],
      "name": "withdraw",
      "outputs": [],
      "stateMutability": "nonpayable",
      "type": "function"
    }
  ],
  "bytecode": "0x608060405266038d7ea4c6800060055560006006553480156200002157600080fd5b506040516200138e3803806200138e8339810160408190526200004491620000d2565b600062000052838262000249565b50600180546001600160a01b039092166001600160a01b031992831681178255600280549093163317909255600091825260046020526040909120805460ff191690911790555062000315565b634e487b7160e01b600052604160045260246000fd5b80516001600160a01b0381168114620000cd57600080fd5b919050565b60008060408385031215620000e657600080fd5b82516001600160401b0380821115620000fe57600080fd5b818501915085601f8301126200011357600080fd5b8151818111156200012857620001286200009f565b604051601f8201601f19908116603f011681019083821181831017156200015357620001536200009f565b816040528281526020935088848487010111156200017057600080fd5b600091505b8282101562000194578482018401518183018501529083019062000175565b6000848483010152809650505050620001af818601620000b5565b925050509250929050565b600181811c90821680620001cf57607f821691505b602082108103620001f057634e487b7160e01b600052602260045260246000fd5b50919050565b601f8211156200024457600081815260208120601f850160051c810160208610156200021f5750805b601f850160051c820191505b8181101562000240578281556001016200022b565b5050505b505050565b81516001600160401b038111156200026557620002656200009f565b6200027d81620002768454620001ba565b84620001f6565b602080601f831160018114620002b557600084156200029c5750858301515b600019600386901b1c1916600185901b17855562000240565b600085815260208120601f198616915b82811015620002e657888601518255948401946001909101908401620002c5565b5085821015620003055787850151600019600388901b60f8161c191681555b5050505050600190811b01905550565b61106980620003256000396000f3fe6080604052600436106100fe5760003560e01c80638da5cb5b11610095578063a81675c711610064578063a81675c7146102af578063a89ae4ba146102d1578063b18b78dd146102f1578063dc6423ab1461030f578063e45b78cd1461033c57600080fd5b80638da5cb5b1461022c5780639140544614610264578063973a814e14610284578063975b99991461029a57600080fd5b80635d9eaeaf116100d15780635d9eaeaf1461017a5780635e9b22ab146101b557806361c992a3146101d65780636fc060841461021657600080fd5b80630f13b763146101035780633ccfd60b146101255780634c69c00f1461013a5780635983e6b01461015a575b600080fd5b34801561010f57600080fd5b5061012361011e366004610b74565b61035c565b005b34801561013157600080fd5b506101236103db565b34801561014657600080fd5b50610123610155366004610b74565b610441565b34801561016657600080fd5b50610123610175366004610b74565b6104a6565b34801561018657600080fd5b5061019a610195366004610ba4565b610519565b6040516101ac96959493929190610c03565b60405180910390f35b6101c86101c3366004610c61565b6105e6565b6040519081526020016101ac565b3480156101e257600080fd5b506102066101f1366004610b74565b60046020526000908152604090205460ff1681565b60405190151581526020016101ac565b34801561022257600080fd5b506101c860055481565b34801561023857600080fd5b5060025461024c906001600160a01b031681565b6040516001600160a01b0390911681526020016101ac565b34801561027057600080fd5b5061012361027f366004610ba4565b6107f2565b34801561029057600080fd5b506101c860065481565b3480156102a657600080fd5b50610123610821565b3480156102bb57600080fd5b506102c4610887565b6040516101ac9190610d12565b3480156102dd57600080fd5b5060015461024c906001600160a01b031681565b3480156102fd57600080fd5b506001546001600160a01b031661024c565b34801561031b57600080fd5b5061032f61032a366004610ba4565b610915565b6040516101ac9190610d25565b34801561034857600080fd5b50610123610357366004610d89565b610a37565b6002546001600160a01b0316331461038f5760405162461bcd60e51b815260040161038690610dab565b60405180910390fd5b6001600160a01b038116600081815260046020526040808220805460ff19166001179055517f5a7a3f71a35f5e2589980d29d1c6d8c75e39657751190874081e55208bae24b79190a250565b6002546001600160a01b031633146104055760405162461bcd60e51b815260040161038690610dab565b6002546040516001600160a01b03909116904780156108fc02916000818181858888f1935050505015801561043e573d6000803e3d6000fd5b50565b6002546001600160a01b0316331461046b5760405162461bcd60e51b815260040161038690610dab565b600180546001600160a01b039092166001600160a01b031990921682178155600091825260046020526040909120805460ff19169091179055565b6002546001600160a01b031633146104d05760405162461bcd60e51b815260040161038690610dab565b6001600160a01b038116600081815260046020526040808220805460ff19169055517f3c9c4af7c4c66de2ffc68abfa4e0d275fbce92f248473bca0d6787dc8caf8e319190a250565b60036020526000908152604090208054600182015460028301805492936001600160a01b039092169261054b90610dec565b80601f016020809104026020016040519081016040528092919081815260200182805461057790610dec565b80156105c45780601f10610599576101008083540402835291602001916105c4565b820191906000526020600020905b8154815290600101906020018083116105a757829003601f168201915b5050505060038301546004840154600590940154929360ff9091169290915086565b600060055434101561062d5760405162461bcd60e51b815260206004820152601060248201526f496e73756666696369656e742066656560801b6044820152606401610386565b6006805490600061063d83610e26565b9091555050600654604080514260208201526bffffffffffffffffffffffff193360601b1691810191909152605481019190915260009060740160408051808303601f19018152828252805160209182012060c08401835280845233828501908152848401888152600060608701819052608087018190524260a08801528381526003909452939092208451815591516001830180546001600160a01b0319166001600160a01b0390921691909117905591519193509060028201906107039082610e9c565b50606082015160038201805460ff1916911515919091179055608082015160048083019190915560a090920151600590910155600154604051633ee024a560e21b81526001600160a01b039091169163fb80929491610766918591889101610f5c565b6020604051808303816000875af1158015610785573d6000803e3d6000fd5b505050506040513d601f19601f820116820180604052508101906107a99190610f7d565b50336001600160a01b0316817f753beea7f3f9a4bf6712ffd16bbfa6e06675edfedd735ff9006f2a9e6135ddf7856040516107e49190610d12565b60405180910390a392915050565b6002546001600160a01b0316331461081c5760405162461bcd60e51b815260040161038690610dab565b600555565b6002546001600160a01b0316331461084b5760405162461bcd60e51b815260040161038690610dab565b7f2c8f1385959c1bdf42ce9a1fb32cc8b937b2b3ee59d25c44451939d40014d13660004260405161087d929190610f9f565b60405180910390a1565b6000805461089490610dec565b80601f01602080910402602001604051908101604052809291908181526020018280546108c090610dec565b801561090d5780601f106108e25761010080835404028352916020019161090d565b820191906000526020600020905b8154815290600101906020018083116108f057829003601f168201915b505050505081565b6040805160c0808201835260008083526020808401829052606084860181905284018290526080840182905260a084018290528582526003815290849020845192830185528054835260018101546001600160a01b03169183019190915260028101805493949293919284019161098b90610dec565b80601f01602080910402602001604051908101604052809291908181526020018280546109b790610dec565b8015610a045780601f106109d957610100808354040283529160200191610a04565b820191906000526020600020905b8154815290600101906020018083116109e757829003601f168201915b5050509183525050600382015460ff16151560208201526004820154604082015260059091015460609091015292915050565b3360009081526004602052604090205460ff16610aad5760405162461bcd60e51b815260206004820152602e60248201527f4f6e6c7920617574686f72697a6564206f7261636c65732063616e2063616c6c60448201526d103a3434b990333ab731ba34b7b760911b6064820152608401610386565b6000828152600360208190526040909120015460ff1615610b105760405162461bcd60e51b815260206004820152601c60248201527f50726564696374696f6e20616c72656164792066756c66696c6c6564000000006044820152606401610386565b600082815260036020819052604091829020908101805460ff191660011790556004018290555182907f25ed78b04a5cb0c93912204e5a42029ea3985f786dab3c67f489bf7a1600501990610b689084815260200190565b60405180910390a25050565b600060208284031215610b8657600080fd5b81356001600160a01b0381168114610b9d57600080fd5b9392505050565b600060208284031215610bb657600080fd5b5035919050565b6000815180845260005b81811015610be357602081850181015186830182015201610bc7565b506000602082860101526020601f19601f83011685010191505092915050565b8681526001600160a01b038616602082015260c060408201819052600090610c2d90830187610bbd565b941515606083015250608081019290925260a0909101529392505050565b634e487b7160e01b600052604160045260246000fd5b600060208284031215610c7357600080fd5b813567ffffffffffffffff80821115610c8b57600080fd5b818401915084601f830112610c9f57600080fd5b813581811115610cb157610cb1610c4b565b604051601f8201601f19908116603f01168101908382118183101715610cd957610cd9610c4b565b81604052828152876020848701011115610cf257600080fd5b826020860160208301376000928101602001929092525095945050505050565b602081526000610b9d6020830184610bbd565b602081528151602082015260018060a01b0360208301511660408201526000604083015160c06060840152610d5d60e0840182610bbd565b9050606084015115156080840152608084015160a084015260a084015160c08401528091505092915050565b60008060408385031215610d9c57600080fd5b50508035926020909101359150565b60208082526021908201527f4f6e6c79206f776e65722063616e2063616c6c20746869732066756e6374696f6040820152603760f91b606082015260800190565b600181811c90821680610e0057607f821691505b602082108103610e2057634e487b7160e01b600052602260045260246000fd5b50919050565b600060018201610e4657634e487b7160e01b600052601160045260246000fd5b5060010190565b601f821115610e9757600081815260208120601f850160051c81016020861015610e745750805b601f850160051c820191505b81811015610e9357828155600101610e80565b5050505b505050565b815167ffffffffffffffff811115610eb657610eb6610c4b565b610eca81610ec48454610dec565b84610e4d565b602080601f831160018114610eff5760008415610ee75750858301515b600019600386901b1c1916600185901b178555610e93565b600085815260208120601f198616915b82811015610f2e57888601518255948401946001909101908401610f0f565b5085821015610f4c5787850151600019600388901b60f8161c191681555b5050505050600190811b01905550565b828152604060208201526000610f756040830184610bbd565b949350505050565b600060208284031215610f8f57600080fd5b81518015158114610b9d57600080fd5b604081526000808454610fb181610dec565b8060408601526060600180841660008114610fd35760018114610fed5761101e565b60ff1985168884015283151560051b88018301955061101e565b8960005260208060002060005b868110156110155781548b8201870152908401908201610ffa565b8a018501975050505b5050505050602092909201929092529291505056fea26469706673582212203aafd6f237a70fd86390c5e4dcfa84935a2bf8dfbc0ab9b4a78a2dc2db93220364736f6c63430008130033",
  "immutableReferences": {},
  "source": "// SPDX-License-Identifier: MIT\npragma solidity ^0.8.0;\n\nimport \"./interfaces/IAIOracle.sol\";\n\ncontract AIContract {\n    string public modelName;\n    address public oracleAddress;\n    address public owner;\n    \n    struct PredictionRequest {\n        bytes32 requestId;\n        address requester;\n        bytes inputData;\n        bool fulfilled;\n        int256 result;\n        uint256 timestamp;\n    }\n    \n    mapping(bytes32 => PredictionRequest) public predictions;\n    mapping(address => bool) public authorizedOracles;\n    \n    uint256 public predictionFee = 0.001 ether;\n    uint256 public requestCounter = 0;\n\n    event ModelTrained(string modelName, uint256 timestamp);\n    event PredictionRequested(bytes32 indexed requestId, address indexed requester, bytes inputData);\n    event PredictionFulfilled(bytes32 indexed requestId, int256 result);\n    event OracleAuthorized(address indexed oracle);\n    event OracleRevoked(address indexed oracle);\n\n    modifier onlyOwner() {\n        require(msg.sender == owner, \"Only owner can call this function\");\n        _;\n    }\n    \n    modifier onlyAuthorizedOracle() {\n        require(authorizedOracles[msg.sender], \"Only authorized oracles can call this function\");\n        _;\n    }\n\n    constructor(string memory _modelName, address _oracleAddress) {\n        modelName = _modelName;\n        oracleAddress = _oracleAddress;\n        owner = msg.sender;\n        authorizedOracles[_oracleAddress] = true;\n    }\n\n    function trainModel() public onlyOwner {\n        // Logic to trigger AI model training\n        emit ModelTrained(modelName, block.timestamp);\n    }\n\n    function requestPrediction(bytes memory inputData) public payable returns (bytes32) {\n        require(msg.value >= predictionFee, \"Insufficient fee\");\n        \n        requestCounter++;\n        bytes32 requestId = keccak256(abi.encodePacked(block.timestamp, msg.sender, requestCounter));\n        \n        predictions[requestId] = PredictionRequest({\n            requestId: requestId,\n            requester: msg.sender,\n            inputData: inputData,\n            fulfilled: false,\n            result: 0,\n            timestamp: block.timestamp\n        });\n        \n        // Call oracle to process prediction\n        IAIOracle(oracleAddress).requestPrediction(requestId, inputData);\n        \n        emit PredictionRequested(requestId, msg.sender, inputData);\n        return requestId;\n    }\n    \n    function fulfillPrediction(bytes32 requestId, int256 result) external onlyAuthorizedOracle {\n        require(!predictions[requestId].fulfilled, \"Prediction already fulfilled\");\n        \n        predictions[requestId].fulfilled = true;\n        predictions[requestId].result = result;\n        \n        emit PredictionFulfilled(requestId, result);\n    }\n    \n    function getPrediction(bytes32 requestId) external view returns (PredictionRequest memory) {\n        return predictions[requestId];\n    }\n\n    function authorizeOracle(address _oracle) external onlyOwner {\n        authorizedOracles[_oracle] = true;\n        emit OracleAuthorized(_oracle);\n    }\n    \n    function revokeOracle(address _oracle) external onlyOwner {\n        authorizedOracles[_oracle] = false;\n        emit OracleRevoked(_oracle);\n    }\n\n    function setOracleAddress(address _oracleAddress) public onlyOwner {\n        oracleAddress = _oracleAddress;\n        authorizedOracles[_oracleAddress] = true;\n    }\n    \n    function setPredictionFee(uint256 _fee) external onlyOwner {\n        predictionFee = _fee;\n    }\n\n    function getOracleAddress() public view returns (address) {\n        return oracleAddress;\n    }\n    \n    function withdraw() external onlyOwner {\n        payable(owner).transfer(address(this).balance);\n    }\n}",
  "sourcePath": "D:\\VS PRojects\\awallet1\\AI smart contract\\ai-smart-contract\\contracts\\AIContract.sol",
  "compiler": {
    "name": "solc",
    "version": "0.8.19+commit.7dd6d404.Emscripten.clang"
  },
  "schemaVersion": "3.4.16",
  "updatedAt": "2025-06-13T14:04:41.313Z",
  "networkType": "ethereum",
  "devdoc": {
    "kind": "dev",
    "methods": {},
    "version": 1
  },
  "userdoc": {
    "kind": "user",
    "methods": {},
    "version": 1
  }
}