{
  "contractName": "AIOracle",
  "abi": [
    {
      "inputs": [
        {
          "internalType": "address",
          "name": "_aiContract",
          "type": "address"
        }
      ],
      "stateMutability": "nonpayable",
      "type": "constructor"
    },
    {
      "anonymous": false,
      "inputs": [
        {
          "indexed": false,
          "internalType": "string",
          "name": "modelName",
          "type": "string"
        },
        {
          "indexed": false,
          "internalType": "string",
          "name": "version",
          "type": "string"
        },
        {
          "indexed": false,
          "internalType": "uint256",
          "name": "accuracy",
          "type": "uint256"
        }
      ],
      "name": "ModelUpdated",
      "type": "event"
    },
    {
      "anonymous": false,
      "inputs": [
        {
          "indexed": true,
          "internalType": "bytes32",
          "name": "requestId",
          "type": "bytes32"
        },
        {
          "indexed": false,
          "internalType": "int256",
          "name": "prediction",
          "type": "int256"
        },
        {
          "indexed": false,
          "internalType": "uint256",
          "name": "confidence",
          "type": "uint256"
        }
      ],
      "name": "PredictionFulfilled",
      "type": "event"
    },
    {
      "anonymous": false,
      "inputs": [
        {
          "indexed": true,
          "internalType": "bytes32",
          "name": "requestId",
          "type": "bytes32"
        },
        {
          "indexed": false,
          "internalType": "bytes",
          "name": "inputData",
          "type": "bytes"
        }
      ],
      "name": "PredictionRequested",
      "type": "event"
    },
    {
      "inputs": [],
      "name": "aiContract",
      "outputs": [
        {
          "internalType": "address",
          "name": "",
          "type": "address"
        }
      ],
      "stateMutability": "view",
      "type": "function",
      "constant": true
    },
    {
      "inputs": [
        {
          "internalType": "address",
          "name": "",
          "type": "address"
        }
      ],
      "name": "authorizedCallers",
      "outputs": [
        {
          "internalType": "bool",
          "name": "",
          "type": "bool"
        }
      ],
      "stateMutability": "view",
      "type": "function",
      "constant": true
    },
    {
      "inputs": [],
      "name": "modelMetadata",
      "outputs": [
        {
          "internalType": "string",
          "name": "modelName",
          "type": "string"
        },
        {
          "internalType": "string",
          "name": "version",
          "type": "string"
        },
        {
          "internalType": "uint256",
          "name": "accuracy",
          "type": "uint256"
        },
        {
          "internalType": "uint256",
          "name": "lastUpdated",
          "type": "uint256"
        }
      ],
      "stateMutability": "view",
      "type": "function",
      "constant": true
    },
    {
      "inputs": [],
      "name": "owner",
      "outputs": [
        {
          "internalType": "address",
          "name": "",
          "type": "address"
        }
      ],
      "stateMutability": "view",
      "type": "function",
      "constant": true
    },
    {
      "inputs": [
        {
          "internalType": "bytes32",
          "name": "",
          "type": "bytes32"
        }
      ],
      "name": "predictions",
      "outputs": [
        {
          "internalType": "int256",
          "name": "prediction",
          "type": "int256"
        },
        {
          "internalType": "uint256",
          "name": "confidence",
          "type": "uint256"
        },
        {
          "internalType": "bool",
          "name": "fulfilled",
          "type": "bool"
        },
        {
          "internalType": "uint256",
          "name": "timestamp",
          "type": "uint256"
        },
        {
          "internalType": "bytes",
          "name": "inputData",
          "type": "bytes"
        }
      ],
      "stateMutability": "view",
      "type": "function",
      "constant": true
    },
    {
      "inputs": [
        {
          "internalType": "bytes32",
          "name": "requestId",
          "type": "bytes32"
        }
      ],
      "name": "getPrediction",
      "outputs": [
        {
          "internalType": "int256",
          "name": "",
          "type": "int256"
        },
        {
          "internalType": "uint256",
          "name": "",
          "type": "uint256"
        },
        {
          "internalType": "bool",
          "name": "",
          "type": "bool"
        }
      ],
      "stateMutability": "view",
      "type": "function",
      "constant": true
    },
    {
      "inputs": [
        {
          "internalType": "bytes32",
          "name": "requestId",
          "type": "bytes32"
        },
        {
          "internalType": "bytes",
          "name": "inputData",
          "type": "bytes"
        }
      ],
      "name": "requestPrediction",
      "outputs": [
        {
          "internalType": "bool",
          "name": "",
          "type": "bool"
        }
      ],
      "stateMutability": "nonpayable",
      "type": "function"
    },
    {
      "inputs": [
        {
          "internalType": "bytes32",
          "name": "requestId",
          "type": "bytes32"
        },
        {
          "internalType": "int256",
          "name": "prediction",
          "type": "int256"
        },
        {
          "internalType": "uint256",
          "name": "confidence",
          "type": "uint256"
        }
      ],
      "name": "fulfillPrediction",
      "outputs": [],
      "stateMutability": "nonpayable",
      "type": "function"
    },
    {
      "inputs": [
        {
          "internalType": "string",
          "name": "modelName",
          "type": "string"
        },
        {
          "internalType": "string",
          "name": "version",
          "type": "string"
        },
        {
          "internalType": "uint256",
          "name": "accuracy",
          "type": "uint256"
        }
      ],
      "name": "updateModel",
      "outputs": [],
      "stateMutability": "nonpayable",
      "type": "function"
    },
    {
      "inputs": [],
      "name": "getModelMetadata",
      "outputs": [
        {
          "components": [
            {
              "internalType": "string",
              "name": "modelName",
              "type": "string"
            },
            {
              "internalType": "string",
              "name": "version",
              "type": "string"
            },
            {
              "internalType": "uint256",
              "name": "accuracy",
              "type": "uint256"
            },
            {
              "internalType": "uint256",
              "name": "lastUpdated",
              "type": "uint256"
            }
          ],
          "internalType": "struct IAIOracle.ModelMetadata",
          "name": "",
          "type": "tuple"
        }
      ],
      "stateMutability": "view",
      "type": "function",
      "constant": true
    },
    {
      "inputs": [
        {
          "internalType": "bytes32",
          "name": "requestId",
          "type": "bytes32"
        }
      ],
      "name": "isRequestPending",
      "outputs": [
        {
          "internalType": "bool",
          "name": "",
          "type": "bool"
        }
      ],
      "stateMutability": "view",
      "type": "function",
      "constant": true
    },
    {
      "inputs": [
        {
          "internalType": "bytes32",
          "name": "requestId",
          "type": "bytes32"
        }
      ],
      "name": "getRequestTimestamp",
      "outputs": [
        {
          "internalType": "uint256",
          "name": "",
          "type": "uint256"
        }
      ],
      "stateMutability": "view",
      "type": "function",
      "constant": true
    },
    {
      "inputs": [
        {
          "internalType": "address",
          "name": "caller",
          "type": "address"
        }
      ],
      "name": "authorizeCaller",
      "outputs": [],
      "stateMutability": "nonpayable",
      "type": "function"
    },
    {
      "inputs": [
        {
          "internalType": "address",
          "name": "caller",
          "type": "address"
        }
      ],
      "name": "revokeCaller",
      "outputs": [],
      "stateMutability": "nonpayable",
      "type": "function"
    },
    {
      "inputs": [
        {
          "internalType": "address",
          "name": "_aiContract",
          "type": "address"
        }
      ],
      "name": "setAIContract",
      "outputs": [],
      "stateMutability": "nonpayable",
      "type": "function"
    },
    {
      "inputs": [
        {
          "internalType": "bytes32",
          "name": "requestId",
          "type": "bytes32"
        }
      ],
      "name": "getRequestData",
      "outputs": [
        {
          "components": [
            {
              "internalType": "int256",
              "name": "prediction",
              "type": "int256"
            },
            {
              "internalType": "uint256",
              "name": "confidence",
              "type": "uint256"
            },
            {
              "internalType": "bool",
              "name": "fulfilled",
              "type": "bool"
            },
            {
              "internalType": "uint256",
              "name": "timestamp",
              "type": "uint256"
            },
            {
              "internalType": "bytes",
              "name": "inputData",
              "type": "bytes"
            }
          ],
          "internalType": "struct AIOracle.PredictionData",
          "name": "",
          "type": "tuple"
        }
      ],
      "stateMutability": "view",
      "type": "function",
      "constant": true
    }
  ],
  "bytecode": "0x60806040523480156200001157600080fd5b506040516200169138038062001691833981016040819052620000349162000127565b600080546001600160a01b031990811633178255600180546001600160a01b03851692168217815590825260036020908152604092839020805460ff1916909217909155815160c0810183526013608082019081527f41492050726564696374696f6e204d6f64656c0000000000000000000000000060a083015281528251808401845260058152640312e302e360dc1b818401529181019190915260559181019190915242606082015280516004908190620000f29082620001fe565b5060208201516001820190620001099082620001fe565b506040820151600282015560609091015160039091015550620002ca565b6000602082840312156200013a57600080fd5b81516001600160a01b03811681146200015257600080fd5b9392505050565b634e487b7160e01b600052604160045260246000fd5b600181811c908216806200018457607f821691505b602082108103620001a557634e487b7160e01b600052602260045260246000fd5b50919050565b601f821115620001f957600081815260208120601f850160051c81016020861015620001d45750805b601f850160051c820191505b81811015620001f557828155600101620001e0565b5050505b505050565b81516001600160401b038111156200021a576200021a62000159565b62000232816200022b84546200016f565b84620001ab565b602080601f8311600181146200026a5760008415620002515750858301515b600019600386901b1c1916600185901b178555620001f5565b600085815260208120601f198616915b828110156200029b578886015182559484019460019091019084016200027a565b5085821015620002ba5787850151600019600388901b60f8161c191681555b5050505050600190811b01905550565b6113b780620002da6000396000f3fe608060405234801561001057600080fd5b50600436106101005760003560e01c80635d9eaeaf11610097578063d1e93d1411610066578063d1e93d1414610251578063dba54c3d14610264578063dc6423ab14610295578063fb809294146102c557600080fd5b80635d9eaeaf146101f45780638da5cb5b14610218578063b77435301461022b578063bf66acf91461023e57600080fd5b80634d981c51116100d35780634d981c511461018157806350a34d2c1461019957806350f3f055146101ac578063536fff6c146101c157600080fd5b80631f271422146101055780632a00a4721461011a5780632c388d5d1461014357806330b734c514610156575b600080fd5b610118610113366004610dcd565b6102d8565b005b61012d610128366004610dfd565b610346565b60405161013a9190610e5c565b60405180910390f35b610118610151366004610dcd565b61045c565b600154610169906001600160a01b031681565b6040516001600160a01b03909116815260200161013a565b6101896104aa565b60405161013a9493929190610ea9565b6101186101a7366004610f2b565b6105d6565b6101b46106bd565b60405161013a9190610f9f565b6101e46101cf366004610dcd565b60036020526000908152604090205460ff1681565b604051901515815260200161013a565b610207610202366004610dfd565b610832565b60405161013a959493929190610ff9565b600054610169906001600160a01b031681565b610118610239366004610dcd565b6108f1565b61011861024c366004611031565b61093c565b6101e461025f366004610dfd565b610adb565b610287610272366004610dfd565b60009081526002602052604090206003015490565b60405190815260200161013a565b6102a86102a3366004610dfd565b610b14565b60408051938452602084019290925215159082015260600161013a565b6101e46102d336600461105d565b610c0f565b6000546001600160a01b0316331461030b5760405162461bcd60e51b8152600401610302906110a9565b60405180910390fd5b600180546001600160a01b039092166001600160a01b031990921682178155600091825260036020526040909120805460ff19169091179055565b61037a6040518060a00160405280600081526020016000815260200160001515815260200160008152602001606081525090565b600082815260026020818152604092839020835160a081018552815481526001820154928101929092529182015460ff16151592810192909252600381015460608301526004810180546080840191906103d3906110ea565b80601f01602080910402602001604051908101604052809291908181526020018280546103ff906110ea565b801561044c5780601f106104215761010080835404028352916020019161044c565b820191906000526020600020905b81548152906001019060200180831161042f57829003601f168201915b5050505050815250509050919050565b6000546001600160a01b031633146104865760405162461bcd60e51b8152600401610302906110a9565b6001600160a01b03166000908152600360205260409020805460ff19166001179055565b6004805481906104b9906110ea565b80601f01602080910402602001604051908101604052809291908181526020018280546104e5906110ea565b80156105325780601f1061050757610100808354040283529160200191610532565b820191906000526020600020905b81548152906001019060200180831161051557829003601f168201915b505050505090806001018054610547906110ea565b80601f0160208091040260200160405190810160405280929190818152602001828054610573906110ea565b80156105c05780601f10610595576101008083540402835291602001916105c0565b820191906000526020600020905b8154815290600101906020018083116105a357829003601f168201915b5050505050908060020154908060030154905084565b6000546001600160a01b031633146106005760405162461bcd60e51b8152600401610302906110a9565b60648111156106515760405162461bcd60e51b815260206004820152601760248201527f4163637572616379206d757374206265203c3d203130300000000000000000006044820152606401610302565b600461065e858783611189565b50600561066c838583611189565b506006819055426007556040517f834debcf3ac0cc591edb4c122a3190d15edf9deb083b71171a70834e5519ec87906106ae9087908790879087908790611273565b60405180910390a15050505050565b6106e86040518060800160405280606081526020016060815260200160008152602001600081525090565b6004604051806080016040529081600082018054610705906110ea565b80601f0160208091040260200160405190810160405280929190818152602001828054610731906110ea565b801561077e5780601f106107535761010080835404028352916020019161077e565b820191906000526020600020905b81548152906001019060200180831161076157829003601f168201915b50505050508152602001600182018054610797906110ea565b80601f01602080910402602001604051908101604052809291908181526020018280546107c3906110ea565b80156108105780601f106107e557610100808354040283529160200191610810565b820191906000526020600020905b8154815290600101906020018083116107f357829003601f168201915b5050505050815260200160028201548152602001600382015481525050905090565b60026020819052600091825260409091208054600182015492820154600383015460048401805493959460ff9093169391929161086e906110ea565b80601f016020809104026020016040519081016040528092919081815260200182805461089a906110ea565b80156108e75780601f106108bc576101008083540402835291602001916108e7565b820191906000526020600020905b8154815290600101906020018083116108ca57829003601f168201915b5050505050905085565b6000546001600160a01b0316331461091b5760405162461bcd60e51b8152600401610302906110a9565b6001600160a01b03166000908152600360205260409020805460ff19169055565b6000546001600160a01b031633146109665760405162461bcd60e51b8152600401610302906110a9565b60008381526002602052604081206003015490036109bf5760405162461bcd60e51b815260206004820152601660248201527514995c5d595cdd08191bd95cc81b9bdd08195e1a5cdd60521b6044820152606401610302565b6000838152600260208190526040909120015460ff1615610a225760405162461bcd60e51b815260206004820152601c60248201527f50726564696374696f6e20616c72656164792066756c66696c6c6564000000006044820152606401610302565b6064811115610a735760405162461bcd60e51b815260206004820152601960248201527f436f6e666964656e6365206d757374206265203c3d20313030000000000000006044820152606401610302565b60008381526002602081815260409283902085815560018082018690559201805460ff1916909217909155815184815290810183905284917fec9b2b9f1b587fd7a52e4882d37acc3c0038e3777fc93fcd764dc6a34a5a9f56910160405180910390a2505050565b60008181526002602052604081206003015415801590610b0e57506000828152600260208190526040909120015460ff16155b92915050565b6000818152600260208181526040808420815160a081018352815481526001820154938101939093529283015460ff16151590820152600382015460608201526004820180548493849384939092608084019190610b71906110ea565b80601f0160208091040260200160405190810160405280929190818152602001828054610b9d906110ea565b8015610bea5780601f10610bbf57610100808354040283529160200191610bea565b820191906000526020600020905b815481529060010190602001808311610bcd57829003601f168201915b5050509190925250508151602083015160409093015190989297509550909350505050565b3360009081526003602052604081205460ff1680610c3757506001546001600160a01b031633145b610c795760405162461bcd60e51b81526020600482015260136024820152722ab730baba3437b934bd32b21031b0b63632b960691b6044820152606401610302565b60008481526002602052604090206003015415610cd15760405162461bcd60e51b81526020600482015260166024820152755265717565737420616c72656164792065786973747360501b6044820152606401610302565b6040518060a00160405280600081526020016000815260200160001515815260200142815260200184848080601f0160208091040260200160405190810160405280939291908181526020018383808284376000920182905250939094525050868152600260208181526040928390208551815590850151600182015591840151908201805460ff19169115159190911790556060830151600382015560808301519091506004820190610d8590826112ad565b50905050837fd23be7640d059f9ea4de406f211dbf28ee514b473a00413fecd14579977e0ad58484604051610dbb92919061136d565b60405180910390a25060019392505050565b600060208284031215610ddf57600080fd5b81356001600160a01b0381168114610df657600080fd5b9392505050565b600060208284031215610e0f57600080fd5b5035919050565b6000815180845260005b81811015610e3c57602081850181015186830182015201610e20565b506000602082860101526020601f19601f83011685010191505092915050565b602081528151602082015260208201516040820152604082015115156060820152606082015160808201526000608083015160a080840152610ea160c0840182610e16565b949350505050565b608081526000610ebc6080830187610e16565b8281036020840152610ece8187610e16565b604084019590955250506060015292915050565b60008083601f840112610ef457600080fd5b50813567ffffffffffffffff811115610f0c57600080fd5b602083019150836020828501011115610f2457600080fd5b9250929050565b600080600080600060608688031215610f4357600080fd5b853567ffffffffffffffff80821115610f5b57600080fd5b610f6789838a01610ee2565b90975095506020880135915080821115610f8057600080fd5b50610f8d88828901610ee2565b96999598509660400135949350505050565b602081526000825160806020840152610fbb60a0840182610e16565b90506020840151601f19848303016040850152610fd88282610e16565b91505060408401516060840152606084015160808401528091505092915050565b858152846020820152831515604082015282606082015260a06080820152600061102660a0830184610e16565b979650505050505050565b60008060006060848603121561104657600080fd5b505081359360208301359350604090920135919050565b60008060006040848603121561107257600080fd5b83359250602084013567ffffffffffffffff81111561109057600080fd5b61109c86828701610ee2565b9497909650939450505050565b60208082526021908201527f4f6e6c79206f776e65722063616e2063616c6c20746869732066756e6374696f6040820152603760f91b606082015260800190565b600181811c908216806110fe57607f821691505b60208210810361111e57634e487b7160e01b600052602260045260246000fd5b50919050565b634e487b7160e01b600052604160045260246000fd5b601f82111561118457600081815260208120601f850160051c810160208610156111615750805b601f850160051c820191505b818110156111805782815560010161116d565b5050505b505050565b67ffffffffffffffff8311156111a1576111a1611124565b6111b5836111af83546110ea565b8361113a565b6000601f8411600181146111e957600085156111d15750838201355b600019600387901b1c1916600186901b178355611243565b600083815260209020601f19861690835b8281101561121a57868501358255602094850194600190920191016111fa565b50868210156112375760001960f88860031b161c19848701351681555b505060018560011b0183555b5050505050565b81835281816020850137506000828201602090810191909152601f909101601f19169091010190565b60608152600061128760608301878961124a565b828103602084015261129a81868861124a565b9150508260408301529695505050505050565b815167ffffffffffffffff8111156112c7576112c7611124565b6112db816112d584546110ea565b8461113a565b602080601f83116001811461131057600084156112f85750858301515b600019600386901b1c1916600185901b178555611180565b600085815260208120601f198616915b8281101561133f57888601518255948401946001909101908401611320565b508582101561135d5787850151600019600388901b60f8161c191681555b5050505050600190811b01905550565b602081526000610ea160208301848661124a56fea26469706673582212200d544999b6fb6e16bb27cf574a5a9b9b7b65272418e01403210d038db1babd4f64736f6c63430008130033",
  "immutableReferences": {},
  "source": "// SPDX-License-Identifier: MIT\r\npragma solidity ^0.8.0;\r\n\r\nimport \"./interfaces/IAIOracle.sol\";\r\n\r\ncontract AIOracle is IAIOracle {\r\n    address public owner;\r\n    address public aiContract;\r\n    \r\n    struct PredictionData {\r\n        int256 prediction;\r\n        uint256 confidence;\r\n        bool fulfilled;\r\n        uint256 timestamp;\r\n        bytes inputData;\r\n    }\r\n    \r\n    mapping(bytes32 => PredictionData) public predictions;\r\n    mapping(address => bool) public authorizedCallers;\r\n    \r\n    ModelMetadata public modelMetadata;\r\n    \r\n    modifier onlyOwner() {\r\n        require(msg.sender == owner, \"Only owner can call this function\");\r\n        _;\r\n    }\r\n    \r\n    modifier onlyAuthorizedCaller() {\r\n        require(authorizedCallers[msg.sender] || msg.sender == aiContract, \"Unauthorized caller\");\r\n        _;\r\n    }\r\n    \r\n    constructor(address _aiContract) {\r\n        owner = msg.sender;\r\n        aiContract = _aiContract;\r\n        authorizedCallers[_aiContract] = true;\r\n        \r\n        // Initialize model metadata\r\n        modelMetadata = ModelMetadata({\r\n            modelName: \"AI Prediction Model\",\r\n            version: \"1.0.0\",\r\n            accuracy: 85,\r\n            lastUpdated: block.timestamp\r\n        });\r\n    }\r\n    \r\n    function getPrediction(bytes32 requestId) external view override returns (int256, uint256, bool) {\r\n        PredictionData memory data = predictions[requestId];\r\n        return (data.prediction, data.confidence, data.fulfilled);\r\n    }\r\n    \r\n    function requestPrediction(bytes32 requestId, bytes calldata inputData) external override onlyAuthorizedCaller returns (bool) {\r\n        require(predictions[requestId].timestamp == 0, \"Request already exists\");\r\n        \r\n        predictions[requestId] = PredictionData({\r\n            prediction: 0,\r\n            confidence: 0,\r\n            fulfilled: false,\r\n            timestamp: block.timestamp,\r\n            inputData: inputData\r\n        });\r\n        \r\n        emit PredictionRequested(requestId, inputData);\r\n        return true;\r\n    }\r\n    \r\n    function fulfillPrediction(bytes32 requestId, int256 prediction, uint256 confidence) external override onlyOwner {\r\n        require(predictions[requestId].timestamp != 0, \"Request does not exist\");\r\n        require(!predictions[requestId].fulfilled, \"Prediction already fulfilled\");\r\n        require(confidence <= 100, \"Confidence must be <= 100\");\r\n        \r\n        predictions[requestId].prediction = prediction;\r\n        predictions[requestId].confidence = confidence;\r\n        predictions[requestId].fulfilled = true;\r\n        \r\n        emit PredictionFulfilled(requestId, prediction, confidence);\r\n    }\r\n    \r\n    function updateModel(string calldata modelName, string calldata version, uint256 accuracy) external override onlyOwner {\r\n        require(accuracy <= 100, \"Accuracy must be <= 100\");\r\n        \r\n        modelMetadata.modelName = modelName;\r\n        modelMetadata.version = version;\r\n        modelMetadata.accuracy = accuracy;\r\n        modelMetadata.lastUpdated = block.timestamp;\r\n        \r\n        emit ModelUpdated(modelName, version, accuracy);\r\n    }\r\n    \r\n    function getModelMetadata() external view override returns (ModelMetadata memory) {\r\n        return modelMetadata;\r\n    }\r\n    \r\n    function isRequestPending(bytes32 requestId) external view override returns (bool) {\r\n        return predictions[requestId].timestamp != 0 && !predictions[requestId].fulfilled;\r\n    }\r\n    \r\n    function getRequestTimestamp(bytes32 requestId) external view override returns (uint256) {\r\n        return predictions[requestId].timestamp;\r\n    }\r\n    \r\n    function authorizeCaller(address caller) external onlyOwner {\r\n        authorizedCallers[caller] = true;\r\n    }\r\n    \r\n    function revokeCaller(address caller) external onlyOwner {\r\n        authorizedCallers[caller] = false;\r\n    }\r\n    \r\n    function setAIContract(address _aiContract) external onlyOwner {\r\n        aiContract = _aiContract;\r\n        authorizedCallers[_aiContract] = true;\r\n    }\r\n    \r\n    function getRequestData(bytes32 requestId) external view returns (PredictionData memory) {\r\n        return predictions[requestId];\r\n    }\r\n}\r\n",
  "sourcePath": "D:\\VS PRojects\\awallet1\\AI smart contract\\ai-smart-contract\\contracts\\AIOracle.sol",
  "compiler": {
    "name": "solc",
    "version": "0.8.19+commit.7dd6d404.Emscripten.clang"
  },
  "schemaVersion": "3.4.16",
  "updatedAt": "2025-06-13T14:04:41.306Z",
  "networkType": "ethereum",
  "devdoc": {
    "kind": "dev",
    "methods": {},
    "version": 1
  },
  "userdoc": {
    "kind": "user",
    "methods": {},
    "version": 1
  }
}